:020000040800F2
:1000000000500020E51A0008051A0008071A000829
:10001000091A00080B1A00080D1A00080000000059
:100020000000000000000000000000000F1A00089F
:10003000111A000800000000131A0008151A000821
:100040002D1B00082D1B00082D1B00082D1B000870
:100050002D1B00082D1B00082D1B00082D1B000860
:100060002D1B00082D1B00082D1B00082D1B000850
:100070002D1B00082D1B00082D1B00082D1B000840
:100080002D1B00082D1B00082D1B00082D1B000830
:100090002D1B00082D1B00082D1B00082D1B000820
:1000A0002D1B00082D1B00082D1B00082D1B000810
:1000B0002D1B00082D1B00082D1B00082D1B000800
:1000C0002D1B00082D1B00082D1B00082D1B0008F0
:1000D0002D1B00082D1B00082D1B00082D1B0008E0
:1000E0001D1A00082D1B00082D1B00080000000031
:1000F0000000000000000000000000000000000000
:0C01000000000000000000005FF808F1A3
:10010C0010B5054C237833B9044B13B10448AFF345
:10011C0000800123237010BD70000020000000003F
:10012C00382A000808B5034B1BB103490348AFF349
:10013C00008008BD0000000074000020382A000870
:10014C0010B504460E4B18784FF47A73B3FBF0F3EA
:10015C000C4A1068B0FBF3F000F0A0F868B90F2C53
:10016C0001D901200AE0002221464FF0FF3000F0B7
:10017C0055F8034B5C60002000E0012010BD00BF6F
:10018C00000000200800002008B5074A136843F05F
:10019C0010031360032000F02FF80020FFF7D0FFAE
:1001AC0001F09CFB002008BD00200240034A1168AE
:1001BC00034B1B780B441360704700BFA00000205A
:1001CC0000000020014B1868704700BFA000002001
:1001DC0038B50446FFF7F6FF0546B4F1FF3F02D0F1
:1001EC00044B1B781C44FFF7EDFF401BA042FAD3D5
:1001FC0038BD00BF00000020074AD36823F4E06339
:10020C001B041B0C000200F4E060184340F0BF60BC
:10021C0040F40030D060704700ED00E030B4174B74
:10022C00DB68C3F30223C3F10704042C28BF0424A6
:10023C001D1D062D18D9033B4FF0FF3505FA04F4AC
:10024C0021EA0401994005FA03F322EA0303194356
:10025C0000280BDB0901C9B200F1604000F56140D8
:10026C0080F8001330BC70470023E5E700F00F0066
:10027C000901C9B2024B1954F4E700BF00ED00E0CC
:10028C0014ED00E000F01F02400901239340024AE4
:10029C0042F82030704700BF00E100E00138B0F1B7
:1002AC00807F0AD2064B5860064AF02182F8231050
:1002BC000020986007221A6070470120704700BF29
:1002CC0010E000E000ED00E0F0B482B0002635460E
:1002DC00A1E0002C59D0012C00D1CE68FF2B68D89E
:1002EC008446FF2B68D8AC00DCF800200F27A74011
:1002FC0022EA070206FA04F42243CCF800204A68EA
:10030C0012F0805F00F086805E4A946944F001042C
:10031C009461926902F001020192019AAC08A71C47
:10032C00594A52F8272005F00307BF004FF00F0C75
:10033C000CFA07FC22EA0C0C544A904242D002F50B
:10034C00806290427FD002F5806290427DD002F5AF
:10035C008062904234D0042235E04D4FBC4214D020
:10036C000BD94C4FBC4210D007F58037BC420CD097
:10037C00A7F58017BC42B1D107E0A7F58017BC42A6
:10038C0003D007F58037BC42A8D18C687CB1012C16
:10039C0008D042610826A1E7CE6808369EE7CE68F1
:1003AC000C369BE70261082698E7002696E70426A0
:1003BC0094E700F1040C94E7A5F10804A40093E77A
:1003CC00032200E00022BA4042EA0C0202342E4F13
:1003DC0047F824204A6812F4803F38D02E4C22680B
:1003EC001A4322604A6812F4003F36D02A4C6268E5
:1003FC001A4362604A6812F4801F34D0264CA268FB
:10040C001A43A2604A6812F4001F32D0224CE268F0
:10041C001343E36001350F2D31D80122AA400B683C
:10042C0013409A42F6D14C68122CB8D095D8022CB5
:10043C00B2D07FF64EAF032CB7D0112C7FF44EAF59
:10044C00CE6804364AE70122BDE70222BBE7124C14
:10045C00226822EA03022260C4E70F4C626822EA97
:10046C0003026260C6E70C4CA26822EA0302A26097
:10047C00C8E7094CE26822EA0303E360CAE702B06A
:10048C00F0BC704700100240000001400008014021
:10049C0000002110000031100004014012B90904C1
:1004AC0001617047016170477047000008B5054B4A
:1004BC005B69034200D108BD024B5861FFF7F4FFA2
:1004CC00F9E700BF0004014003685A6912F4806F19
:1004DC000DD06FF480625A6104230364002303631C
:1004EC00202280F83D2080F83C300120704700200D
:1004FC007047F8B506460C4617461D461EE02DB152
:10050C00FFF760FE069BC01AA84217D9002333637D
:10051C00202286F83D2086F83E3086F83C300320B9
:10052C001AE033685B6924EA03039BB2B3FA83F3E2
:10053C005B099F420FD1B5F1FF3FE0D1C4F30743F4
:10054C00012BEED033689B6924EA03039BB2B3FA08
:10055C0083F35B09EDE70020F8BDF8B504460D46C2
:10056C0016461F4632E01A6842F400721A6023687D
:10057C006FF480625A6104232364002323632022D6
:10058C0084F83D2084F83C3001202DE026B1FFF7A3
:10059C0019FEC01BB04219D900232363202284F812
:1005AC003D2084F83C3003201EE023685B6925EA7B
:1005BC0003039BB2003318BF0123A3B123685A690C
:1005CC0012F4806FCFD1B6F1FF3FDFD1C5F30743F3
:1005DC00012BEAD023689B6925EA03039BB2003305
:1005EC0018BF0123E9E70020F8BD70B504460D469D
:1005FC00164623685B6913F0800F19D12046FFF76C
:10060C0063FFB8B9B5F1FF3FF3D025B1FFF7DAFDC1
:10061C00801BA842EDD9236C43F0200323640023F4
:10062C002363202284F83D2084F83C30032000E032
:10063C00002070BD0120FCE72DE9F04184B0044698
:10064C000E46174698460B9D0268136843F4806368
:10065C0013600268136843F48073136000950A9B5F
:10066C0000224FF00111FFF744FF002874D1F6B2BD
:10067C00236806F0FE021A612B460A9A3F4920466F
:10068C00FFF76BFF20B1236C042B6AD1012364E0CC
:10069C000023039323685A6903929B690393039B7A
:1006AC002A460A992046FFF7A0FF48B1236C042B79
:1006BC0059D12268136843F40073136001234CE092
:1006CC00B8F1010F12D12368FFB21F612A460A99B3
:1006DC002046FFF78AFF00B3236C042B47D1226816
:1006EC00136843F400731360012336E023683A0A5D
:1006FC001A612A460A992046FFF777FF48B1236C06
:10070C00042B32D12268136843F400731360012365
:10071C0023E02368FFB21F61D8E72268136843F413
:10072C008073136000950A9B00224FF00111204644
:10073C00FFF7DFFEE8B9236846F001061E612B4681
:10074C000A9A0E492046FFF708FF034628B1236C8E
:10075C00042B10D1012300E00323184604B0BDE89C
:10076C00F0810323F9E70323F7E70323F5E70323DA
:10077C00F3E70323F1E70323EFE700BF02000100D7
:10078C0070B505460C4616462B685A6912F0400F98
:10079C0022D15A6912F0100F11D124B1FFF712FDBA
:1007AC00801BA042F0D92B6C43F020032B64202338
:1007BC0085F83D30002385F83C30032070BD6FF088
:1007CC0010025A6100232B642B63202285F83D20F4
:1007DC0085F83C300120F1E70020EFE7002800F01D
:1007EC00A28038B5044690F83D30002B4FD024231E
:1007FC0084F83D302268136823F00103136000F085
:10080C0031FD62684A4B9A4246D84A4B98428CBF9B
:10081C0000230123002B40F08880474BA3FB0023CF
:10082C009B0C226853606168414A91423AD801336B
:10083C002268136261683E4B99423DD8431E4900C1
:10084C00B3FBF1F30133C3F30B03042B38BF0423C5
:10085C002268D361E369216A22680B431360236920
:10086C00E16822680B4393606369A16922680B43BA
:10087C00D3602268136843F00103136000202064E6
:10088C00202384F83D30206384F83E0038BD80F886
:10089C003C3001F045F8AAE7284B98428CBF002366
:1008AC000123B7E74FF4967202FB03F3244AA2FB31
:1008BC0003239B090133BBE7A368BBB9421E01EBC1
:1008CC004105B2FBF5F20132C2F30B02B2FA82F22D
:1008DC00520932BBC3B9013801EB4103B0FBF3F34E
:1008EC000133C3F30B0343F40043B1E7421E01EBA6
:1008FC00810505EB8505B2FBF5F20132C2F30B0263
:10090C00B2FA82F25209E4E7013801EB810303EBFE
:10091C008303B0FBF3F30133C3F30B0343F4404302
:10092C0096E7012394E7012070470120AEE700BF52
:10093C00A08601007F841E0083DE1B43FF083D0060
:10094C00D34D62102DE9F04186B004460E46174691
:10095C009846FFF737FC94F83D30DBB2202B04D0DF
:10096C000226304606B0BDE8F081054600901923FA
:10097C00012291492046FFF7BCFD002840F0578129
:10098C0094F83C30012B00F05481012384F83C3066
:10099C0023681A6812F0010F03D11A6842F00102A1
:1009AC001A602268136823F400631360222384F80E
:1009BC003D30402384F83E30002323640C9B63625B
:1009CC00BDF8343063857D4BE362638D23850195DF
:1009DC000E9B009343463A4631462046FFF72CFEC9
:1009EC00064660B1236C042B04D1002384F83C3000
:1009FC000126B6E7002384F83C300326B1E7238DAB
:100A0C005BB9029323685A6902929A690292029A1C
:100A1C001A6842F400721A607FE0012B0FD0022B8F
:100A2C0021D02268136843F480631360002305937C
:100A3C0023685A6905929B690593059B6DE02268B2
:100A4C00136823F48063136072B600230393236846
:100A5C005A6903929A690392039A1A6842F40072D3
:100A6C001A6062B659E02268136843F4006313609D
:100A7C0072B60023049323685A6904929A6904920B
:100A8C00049A1A6822F480621A6062B645E02A461B
:100A9C000E992046FFF774FE68B923681A69636AD9
:100AAC00591C61621A70238D013B2385638D013BB8
:100ABC009BB2638531E0236C202B01D0012650E7DB
:100ACC0003264EE700950E9B00223D492046FFF77A
:100ADC0010FD002840F0AF8072B62268136843F412
:100AEC000073136023681A69636A591C61621A7077
:100AFC00238D013B2385638D013B9BB2638562B6DD
:100B0C0023681A69636A591C61621A70238D013B50
:100B1C002385638D013B9BB26385238D002B7DD098
:100B2C00032B4FD8012BB2D0022BCBD000950E9BB0
:100B3C00002223492046FFF7DCFC00287DD12268E7
:100B4C00136823F48063136072B623681A69636AAE
:100B5C00591C61621A70238D013B2385638D013B07
:100B6C009BB2638500950E9B002215492046FFF72A
:100B7C00C0FC002863D12268136843F4007313602F
:100B8C0023681A69636A591C61621A70238D013BD0
:100B9C002385638D013B9BB2638562B623681A691A
:100BAC00636A591C61621A70238D013B2385638D26
:100BBC00013B9BB26385B0E7020010000000FFFF11
:100BCC00040001002A460E992046FFF7D9FDF0B922
:100BDC0023681A69636A591C61621A70238D013B80
:100BEC002385638D013B9BB2638523685A6912F0A0
:100BFC00040F92D01A69636A591C61621A70238DB2
:100C0C00013B2385638D013B9BB2638585E7236C98
:100C1C00202B01D00126A4E60326A2E6202384F88B
:100C2C003D30002384F83E3084F83C3099E60226AF
:100C3C0097E6022695E6032693E6032691E603261D
:100C4C008FE600BF82B0084B1B68084AA2FB032347
:100C5C005B0A00FB03F0019000BF019B5A1E01923E
:100C6C00002BF9D102B0704708000020D34D621060
:100C7C0070B582B00446036813F0010F2CD0AB4B57
:100C8C005B6803F00C03042B1DD0A84B5B6803F0CE
:100C9C000C03082B12D06368B3F5803F41D0002BB6
:100CAC0055D103F1804303F504331A6822F48032E2
:100CBC001A601A6822F480221A6037E09B4B5B683A
:100CCC0013F4803FE7D0994B1B6813F4003F03D01B
:100CDC006368002B00F0AE81236813F0020F76D00E
:100CEC00924B5B6813F00C0F5FD0904B5B6803F07A
:100CFC000C03082B54D02369002B00F08A808C4BFA
:100D0C0001221A60FFF75EFA0546884B1B6813F048
:100D1C00020F75D1FFF756FA401B0228F5D90320B4
:100D2C008BE1824A136843F480331360636843B3E6
:100D3C00FFF748FA05467D4B1B6813F4003FCBD1F7
:100D4C00FFF740FA401B6428F5D9032075E1B3F591
:100D5C00A02F09D0754B1A6822F480321A601A68D9
:100D6C0022F480221A60E1E703F18043A3F53C33BF
:100D7C001A6842F480221A601A6842F480321A60AF
:100D8C00D4E7FFF71FFA0546684B1B6813F4003FC6
:100D9C00A2D0FFF717FA401B6428F5D903204CE1C9
:100DAC00624B5B6813F4803FA5D1604B1B6813F05A
:100DBC00020F04D02369012B01D001203DE15B4AD5
:100DCC00136823F0F803616943EAC10313602368D5
:100DDC0013F0080F32D0A369002B5BD0554B0122C6
:100DEC001A60FFF7EFF90546504B5B6A13F0020FE0
:100DFC0021D1FFF7E7F9401B0228F5D903201CE1AC
:100E0C004A4A136823F0F803616943EAC10313608B
:100E1C00DDE7474B00221A60FFF7D4F90546434B38
:100E2C001B6813F0020FD2D0FFF7CCF9401B02283D
:100E3C00F5D9032001E10120FFF704FF236813F02B
:100E4C00040F00F09780394BDB6913F0805F33D1CE
:100E5C00364BDA6942F08052DA61DB6903F0805379
:100E6C000193019B0125344B1B6813F4807F25D023
:100E7C00E368012B36D0002B4CD103F1804303F5F2
:100E8C0004331A6A22F001021A621A6A22F004026E
:100E9C001A622CE0274B00221A60FFF793F90546E3
:100EAC00224B5B6A13F0020FC8D0FFF78BF9401B83
:100EBC000228F5D90320C0E00025D4E71E4A1368A8
:100ECC0043F480731360FFF77DF906461A4B1B68D9
:100EDC0013F4807FCCD1FFF775F9801B6428F5D90A
:100EEC000320AAE0114A136A43F001031362E3687A
:100EFC0073B3FFF767F906460C4B1B6A13F0020F2E
:100F0C0037D1FFF75FF9801B41F288339842F3D950
:100F1C00032092E0052B11D0044B1A6A22F0010237
:100F2C001A621A6A22F004021A62E0E70010024008
:100F3C00000042428004424200700040414B1A6A59
:100F4C0042F004021A621A6A42F001021A62CEE7F7
:100F5C00FFF738F906463B4B1B6A13F0020F08D01B
:100F6C00FFF730F9801B41F288339842F3D9032004
:100F7C0063E0E5B9E369002B5ED0324A526802F0B7
:100F8C000C02082A5BD0022B17D02F4B00221A60C0
:100F9C00FFF718F904462B4B1B6813F0007F47D062
:100FAC00FFF710F9001B0228F5D9032045E0254A6C
:100FBC00D36923F08053D361DCE7234B00221A6002
:100FCC00FFF700F905461F4B1B6813F0007F06D096
:100FDC00FFF7F8F8401B0228F5D903202DE0236A0F
:100FEC00B3F5803F1AD017494B6823F47413226A67
:100FFC00606A024313434B60134B01221A60FFF7E4
:10100C00E1F804460F4B1B6813F0007F0ED1FFF77D
:10101C00D9F8001B0228F5D903200EE0094A5368C1
:10102C0023F40033A1680B435360DCE7002004E099
:10103C00002002E0012000E0002002B070BD012081
:10104C00FBE700BF001002406000424210B487B0C2
:10105C00164C94E80F000DF1180C0CE90F00238AC4
:10106C00ADF80430124B5B6803F00C02082A1AD15D
:10107C00C3F38342624412F8102C13F4803F05D161
:10108C000C4800FB02F007B010BC7047084B5B68C3
:10109C00C3F34043634413F8143C074800FB02F0CD
:1010AC00B0FBF3F0EFE70448EDE700BF502A00086F
:1010BC000010024000093D0000127A00624B1B68D0
:1010CC0003F007038B420CD25F4A136823F007032B
:1010DC000B431360136803F007038B4201D001200C
:1010EC00704770B5036813F0020F17D013F0040F9C
:1010FC0004D0564A536843F4E0635360036813F01A
:10110C00080F04D0514A536843F4605353604F4A5C
:10111C00536823F0F0038468234353600D46044660
:10112C00036813F0010F52D04368012B23D0022B1C
:10113C0028D0464A126812F0020F00F08280434910
:10114C004A6822F0030213434B60FFF73BF8064654
:10115C006368012B1DD0022B2AD03C4B5B6813F02B
:10116C000C0F34D0FFF72EF8801B41F288339842D5
:10117C00F3D9032064E0354A126812F4003FDED143
:10118C0001205DE0314A126812F0007FD7D10120B6
:10119C0056E02E4B5B6803F00C03042B17D0FFF7C3
:1011AC0011F8801B41F288339842F2D9032047E0B2
:1011BC00264B5B6803F00C03082B08D0FFF702F8F2
:1011CC00801B41F288339842F2D9032038E01E4B41
:1011DC001B6803F00703AB420CD91B4A136823F0BE
:1011EC0007032B431360136803F00703AB4201D0D2
:1011FC00012025E0236813F0040F06D0134A53682E
:10120C0023F4E063E1680B435360236813F0080F89
:10121C0007D00E4A536823F46053216943EAC10393
:10122C005360FFF713FF094B5B68C3F30313084AC2
:10123C00D35CD840074B18600020FEF781FF0020DC
:10124C0070BD0120FCE700BF0020024000100240EE
:10125C00642A000808000020014B1868704700BF82
:10126C000800002008B5FFF7F7FF044B5B68C3F3D9
:10127C000223034AD35CD84008BD00BF00100240D3
:10128C00742A000808B5FFF7E7FF044B5B68C3F34B
:10129C00C223034AD35CD84008BD00BF00100240F3
:1012AC00742A00082DE9F84305460268136923F4F3
:1012BC004053C1680B43136183680269134342694D
:1012CC0013430168CA6822F4B05222F00C02134393
:1012DC00CB600268536923F4407381690B435361FB
:1012EC000268594B9A4257D0FFF7BCFF00EB8000C5
:1012FC0000EB80006C68A400B0FBF4F4534FA7FB28
:10130C00043464092601FFF7ADFF00EB800000EB0D
:10131C0080006C68A400B0FBF4F9FFF7A3FF00EBAE
:10132C00800000EB80006C68A400B0FBF4F4A7FB19
:10133C00043464094FF0640808FB1494240132341B
:10134C00A7FB0434640904F0F0043444FFF78AFF6B
:10135C0000EB800000EB80006E68B600B0FBF6F688
:10136C00FFF780FF00EB800000EB80006B689B00B8
:10137C00B0FBF3F0A7FB0030400908FB10684FEA04
:10138C00081808F13208A7FB0837C7F343172B6876
:10139C0027449F60BDE8F883FFF774FF00EB8000E3
:1013AC0000EB80006C68A400B0FBF4F4274FA7FBA3
:1013BC00043464092601FFF765FF00EB800000EBA5
:1013CC0080006C68A400B0FBF4F9FFF75BFF00EB46
:1013DC00800000EB80006C68A400B0FBF4F4A7FB69
:1013EC00043464094FF0640808FB1494240132346B
:1013FC00A7FB0434640904F0F0043444FFF742FF03
:10140C0000EB800000EB80006E68B600B0FBF6F6D7
:10141C00FFF738FF00EB800000EB80006B689B004F
:10142C00B0FBF3F0A7FB0030400908FB10684FEA53
:10143C00081808F13208A7FB0837C7F343172B68C5
:10144C0027449F60A6E700BF003801401F85EB5181
:10145C002DE9F04105460F4616469846069C2B682A
:10146C001B6837EA03030CBF01230023B3421DD1D1
:10147C00B4F1FF3FF3D02CB1FEF7A4FEA0EB0800B3
:10148C00A042ECD92A68D36823F4D073D3602A68BD
:10149C00536923F001035361202385F8393085F813
:1014AC003A30002385F83830032000E00020BDE8F6
:1014BC00F08158B310B5044690F839300BB324239F
:1014CC0084F839302268D36823F40053D360204663
:1014DC00FFF7E8FE2268136923F490431361226836
:1014EC00536923F02A0353612268D36843F40053F1
:1014FC00D3600020E063202384F8393084F83A303C
:10150C0010BD80F8383000F047FAD8E7012070475A
:10151C002DE9F04182B01E4690F83930DBB2202B19
:10152C0055D104460D469046002955D0002A55D079
:10153C0090F83830012B53D0012380F83830002339
:10154C00C363212380F83930FEF73CFE0746A4F82C
:10155C002480A4F8268010E000963B4600228021CF
:10156C002046FFF775FF00283CD12B882268C3F377
:10157C00080353602369C3B90235E38C9BB2B3B142
:10158C00E38C013B9BB2E384A368B3F5805FE3D0AB
:10159C0000963B46002280212046FFF759FF18BBDE
:1015AC002A7823685A600135E7E70135E5E70096AC
:1015BC003B46002240212046FFF74AFF0346A8B9CC
:1015CC00202284F83920002284F8382000E00223FD
:1015DC00184602B0BDE8F0810123F9E70123F7E7D3
:1015EC000223F5E70323F3E70323F1E70323EFE7F4
:1015FC0030B589B000240494059406940794254BC7
:10160C009A6942F010029A619A6902F010020092F3
:10161C00009A9A6942F020029A619A6902F02002BB
:10162C000192019A9A6942F004029A619A6902F055
:10163C0004020292029A9A6942F008029A619B692A
:10164C0003F008030393039B134D224620212846E5
:10165C00FEF724FF4FF400530493104B05930694AC
:10166C0004A90F48FEF730FE2023049301230593B1
:10167C0006940223079304A92846FEF725FE22466A
:10168C0021462820FEF7CAFD2820FEF7FBFD09B0F5
:10169C0030BD00BF001002400008014000001110D6
:1016AC000010014008B50848084B03604FF4E133C3
:1016BC00436000238360C36003610C224261836139
:1016CC00C361FFF7F6FE08BD040100200044004092
:1016DC0008B50948094B0360094B4360002383603C
:1016EC00C3604FF48042026143618361C361036252
:1016FC00FFF774F808BD00BFA8000020005400409C
:10170C00A086010000B587B0084B19780A23029314
:10171C00012301930DF11702009202460448FFF7D2
:10172C0011F99DF8170007B05DF804FB8C00002040
:10173C00A800002010B53B20FFF7E4FF04023C207A
:10174C00FFF7E0FF00B220431C4B18803D20FFF751
:10175C00D9FF04023E20FFF7D5FF00B22043184BFF
:10176C0018803F20FFF7CEFF04024020FFF7CAFF8E
:10177C0000B22043134B18804320FFF7C3FF040231
:10178C004420FFF7BFFF00B220430F4B18804520C9
:10179C00FFF7B8FF04024620FFF7B4FF00B2204366
:1017AC000A4B18804720FFF7ADFF04024820FFF7D3
:1017BC00A9FF00B22043064B188010BDFC0000208E
:1017CC0000010020A400002046010020440100205C
:1017DC00FE00002010B514460A2392B20248FFF70F
:1017EC0097FE204610BD00BF0401002030B591B01B
:1017FC000024089409940B940C940194029403947F
:10180C0004940594012306934FF4A02207920A93A3
:10181C0002250D954FF480330E934FF4E0130F9384
:10182C0006A8FFF725FA0F230193029503944FF4B2
:10183C00806304930594294601A8FFF73FFC11B07F
:10184C0030BD000008B5FEF79FFCFFF7CFFFFFF798
:10185C00CFFEFFF727FFFFF73BFF164C012220219D
:10186C002046FEF71BFEFFF765FF134BB3F9003064
:10187C00124AB2F900201249B1F90010114800F0D7
:10188C0083F9114BB3F90030104AB2F9002010491A
:10189C00B1F900100F4800F077F90F4800F0E8F9A3
:1018AC00002220212046FEF7F9FD4FF47A70FEF756
:1018BC008FFCD2E700080140A400002000010020AA
:1018CC00FC000020142B0008FE0000204401002026
:1018DC0046010020442B0008D82A000882B00E4B89
:1018EC009A6942F001029A619A6902F0010200922F
:1018FC00009ADA6942F08052DA61DB6903F08053B6
:10190C000193019B054A536823F0E06343F0007395
:10191C00536002B0704700BF00100240000001404D
:10192C0010B586B0002302930393049305930268C9
:10193C00154B9A4201D006B010BD144CA36943F06C
:10194C000803A361A36903F008030093009B4FF401
:10195C0040730293122303930323059302A90C48AB
:10196C00FEF7B2FC0B4A536843F0E06343F002030A
:10197C005360E36943F40013E361E36903F4001378
:10198C000193019BD7E700BF0054004000100240B8
:10199C00000C01400000014000B587B00023029309
:1019AC000393049305930268114B9A4202D007B03B
:1019BC005DF804FB03F5E633DA6942F40032DA61D0
:1019CC00DA6902F400320092009A9A6942F0040239
:1019DC009A619B6903F004030193019B0C2302930E
:1019EC0002230393059302A90248FEF76DFCDEE780
:1019FC0000440040000801407047FEE7FEE7FEE7A8
:101A0C00FEE770477047704708B5FEF7CFFB08BD7F
:101A1C0008B54FF40050FEF749FD08BD70B50D46F2
:101A2C001646002404E0AFF3008028700134013521
:101A3C00B442F8DB304670BD08B503460B4A126859
:101A4C0042B10A4A106803446A46934206D8074AD0
:101A5C00136008BD054A06491160F2E700F062F810
:101A6C000C2303604FF0FF30F3E700BF9000002021
:101A7C00500100204FF0FF3070474FF400534B6083
:101A8C000020704701207047002070470F4B1A68E8
:101A9C0042F001021A6059680D4A0A405A601A68ED
:101AAC0022F0847222F480321A601A6822F48022A6
:101ABC001A605A6822F4FE025A604FF41F029A60B0
:101ACC00044B4FF000629A60704700BF0010024058
:101ADC000000FFF800ED00E0002103E00B4B5B5829
:101AEC00435004310A480B4B42189A42F6D30A4A27
:101AFC0002E0002342F8043B084B9A42F9D3FFF76B
:101B0C00C5FF00F015F8FFF79DFE7047142C000878
:101B1C000000002070000020700000204C0100200C
:101B2C00FEE70000014B1868704700BF0C00002056
:101B3C0070B500250C4E0D4CA41BA410A54209D168
:101B4C0000F074FF00250A4E0A4CA41BA410A542F9
:101B5C0005D170BD56F8253098470135EEE756F89B
:101B6C00253098470135F2E70C2C00080C2C0008A6
:101B7C000C2C0008102C000803460244934200D1A0
:101B8C00704703F8011BF9E70FB40A4B13B51C6837
:101B9C0024B1A36913B9204600F022FA05AB049ACC
:101BAC00A1682046019300F0D7FB02B0BDE81040BD
:101BBC0004B070470C00002070B50E46054618B1F5
:101BCC0083690BB900F00CFAAB69AC6813B9284601
:101BDC0000F006FA234B9C4217D16C68A3891B07B3
:101BEC001DD52369DBB1013EA36816F8011F013B2B
:101BFC00A360E9B9002B2EDA22460A21284600F010
:101C0C003FF8013011D00A2011E0174B9C4201D152
:101C1C00AC68E3E7154B9C4208BFEC68DEE7214655
:101C2C00284600F07FF80028DDD04FF0FF3070BD63
:101C3C00002B04DAA2699A4206DC0A2904D0236834
:101C4C005A1C22601970CFE72246284600F018F87B
:101C5C000130C9D1E9E70A2023685A1C22601870A8
:101C6C00E5E700BF982B0008B82B0008782B00087C
:101C7C00024B01461868FFF79FBF00BF0C00002005
:101C8C00F8B50E461446054618B183690BB900F039
:101C9C00A7F9214B9C422AD16C68A369A360A38944
:101CAC001A072ED5236963B323692068F6B2C01ACC
:101CBC0063693746834204DC2146284600F026F946
:101CCC0028BBA3680130013BA36023685A1C226027
:101CDC001E706369834204D0A389DB0719D50A2ED1
:101CEC0017D12146284600F011F990B10FE00B4BAB
:101CFC009C4201D1AC68D0E7094B9C4208BFEC6810
:101D0C00CBE72146284600F00DF80028CCD04FF048
:101D1C00FF373846F8BD00BF982B0008B82B0008D9
:101D2C00782B0008324B70B51D6806460C4625B161
:101D3C00AB6913B9284600F053F92E4B9C420FD1D6
:101D4C006C68B4F90C309AB215072CD4D00611D4A7
:101D5C000922326043F04003A3814FF0FF303EE094
:101D6C00254B9C4201D1AC68EBE7244B9C4208BF4D
:101D7C00EC68E6E7510712D5616B41B104F14403FD
:101D8C00994202D0304600F019FA00236363A3890C
:101D9C0023F02403A3810023636023692360A389B8
:101DAC0043F00803A38123694BB9A38903F420737F
:101DBC00B3F5007F03D02146304600F0BFF9A2896D
:101DCC0012F001030CD00023A36063695B42A36192
:101DDC00236953B9B4F90C3013F08000BAD170BD3B
:101DEC00920758BF6369A360F2E70020F7E700BFD2
:101DFC000C000020982B0008B82B0008782B00084A
:101E0C008A892DE9F041054610070C4658D44B68D9
:101E1C00002B05DC0B6C002B02DC0020BDE8F081F4
:101E2C00E66A002EF9D0002312F480522F68216A42
:101E3C002B6032D0606DA3895A0705D56368C01A30
:101E4C00636B0BB1236CC01A00230246E66A216A4D
:101E5C002846B047431CA38906D129681D2948D8B8
:101E6C00294ACA40D60744D5002262602269D904A7
:101E7C00226004D5421C01D12B6803B96065616BEB
:101E8C002F600029C9D004F14403994202D028469E
:101E9C0000F094F900206063C0E701232846B047A6
:101EAC00411CC8D12B68002BC5D01D2B01D0162B83
:101EBC0001D12F60B1E7A38943F04003A381ADE7C3
:101ECC000F69002FA9D0930718BF00230E6808BF15
:101EDC004B69A6EB07080F608B60B8F1000F9CDD17
:101EEC0043463A46216A2846A66AB047002806DCD3
:101EFC00A38943F04003A3814FF0FF308EE70744E2
:101F0C00A8EB0008E9E700BF0100402038B50B69D9
:101F1C0005460C46DBB118B183690BB900F060F8CB
:101F2C000C4B9C4209D16C68B4F90C307BB1214646
:101F3C002846BDE83840FFF763BF074B9C4201D1F0
:101F4C00AC68F1E7054B9C4208BFEC68ECE700205D
:101F5C0038BD00BF982B0008B82B0008782B000860
:101F6C00002310B50446C0E90033836081814366C9
:101F7C00C281C0E904338361194608225C30FFF743
:101F8C00FBFD054B24626362044BA362044BE362CA
:101F9C00044B236310BD00BFC1280008E3280008D0
:101FAC001B2900083F290008014900F085B800BF33
:101FBC00191F000870B568254A1E55430E4605F1D9
:101FCC00740100F047F9044640B10021C0E9001645
:101FDC000C30A06005F16802FFF7CEFD204670BD05
:101FEC00836910B5044633BBC0E912330365124B49
:101FFC00124A1B688262984204BF0123836100F07D
:10200C001FF86060204600F01BF8A060204600F02E
:10201C0017F80022E06004216068FFF7A1FF01229D
:10202C000921A068FFF79CFF02221221E068FFF74C
:10203C0097FF0123A36110BD742B0008B51F000886
:10204C00F8B51B4B07461E68B36913B93046FFF74A
:10205C00C7FF4836D6E90134013B03D5336833B1A9
:10206C003668F7E7B4F90C506DB16834F4E7042125
:10207C003846FFF79FFF30600028F1D10C2304464F
:10208C003B602046F8BD0B4B6566C4E90055A56066
:10209C00C4E90335C4E905550822294604F15C005E
:1020AC00FFF76AFDC4E90D55C4E91255E9E700BF15
:1020BC00742B00080100FFFF2DE9F8438046894688
:1020CC00002600F1480414B93046BDE8F883D4E981
:1020DC000175013F01D52468F5E7AB89012B07D9C0
:1020EC00B5F90E30013303D029464046C8470643A4
:1020FC006835EEE770B50E46B1F90E1096B00029B2
:10210C0014461D4607DA00232B60B3891A0610D437
:10211C004FF480630EE06A4600F032FC0028F2DBDC
:10212C00019A02F47042A2F500535A425A412A60B5
:10213C00EEE740230020236016B070BD8B8973B589
:10214C009D0706460C4607D504F14703236023611F
:10215C000123636102B070BD01AB6A46FFF7CAFF91
:10216C0000990546304600F075F848B9B4F90C30C2
:10217C009A05EFD423F0030343F00203A381E3E7B2
:10218C000D4BB362A389206043F08003A381009BB5
:10219C0020616361019B5BB1B4F90E10304600F015
:1021AC0001FC28B1A38923F0030343F00103A381AD
:1021BC00A3891D43A581CDE7B51F000838B5054699
:1021CC00002943D051F8043C0C1F002BB8BFE41875
:1021DC0000F018FC1E4A1368104633B96360146093
:1021EC002846BDE8384000F00EBCA3420BD921684C
:1021FC006218934201BF1A685B68521822606360D0
:10220C000460EDE713465A680AB1A242FAD919687C
:10221C005818A0420BD1206801445818824219600A
:10222C00DED110685268014419605A60D8E702D9AF
:10223C000C232B60D4E7206821188A4201BF116857
:10224C0052680918216062605C60C9E738BD00BF44
:10225C009800002070B5CD1C25F0030508350C2D19
:10226C0038BF0C25002D064601DBA94203D90C23EF
:10227C003360002070BD00F0C5FB214A1468214674
:10228C0091B9204C23681BB9304600F003FB206049
:10229C002946304600F0FEFA431C24D10C2330466C
:1022AC00336000F0B0FBE4E70B685B1B18D40B2B1E
:1022BC000FD90B60CC18CD50304600F0A4FB04F1C4
:1022CC000B00231D20F00700C31AD3D05A42E25052
:1022DC00D0E74B688C4216BF636013600C46EBE78B
:1022EC000C464968CCE7C41C24F00304A04205D07A
:1022FC00211A304600F0CEFA0130CFD02560DBE752
:10230C00980000209C000020936810B4013B002B27
:10231C00936007DA9469A34201DB0A2902D110BC4D
:10232C00FFF7AEBC1368581C10601970084610BC3F
:10233C007047F8B506460F461446D518AC4201D185
:10234C00002007E03A4614F8011B3046FFF7DCFF8B
:10235C00431CF3D1F8BD00002DE9F04F0C469DB0A5
:10236C0017461D46064618B183690BB9FFF738FEB0
:10237C007C4B9C4258D17468A38918075ED523699D
:10238C00002B5BD00023099320238DF829303023B8
:10239C004FF0010B8DF82A300395B846454615F8D9
:1023AC00013B0BB1252B54D1B8EB070A0BD053468C
:1023BC003A4621463046FFF7BCFF013000F0C280A0
:1023CC00099B5344099398F80030002B00F0BA8015
:1023DC0000234FF0FF32CDE90523049307938DF8CA
:1023EC0053301A93A846052218F8011B5E4800F0DA
:1023FC00FBFA049B78BBD90644BF20228DF85320EE
:10240C001A0744BF2B228DF853202A782A2A2AD067
:10241C00A84600200A25079A414611F8013B303B9B
:10242C00092B69D960B324E0504B9C4201D1B468AC
:10243C00A2E74F4B9C4208BFF4689DE7214630460B
:10244C00FFF770FC00289DD04FF0FF301DB0BDE8A9
:10245C00F08FA846A2E7444A4546801A0BFA00F0D2
:10246C0018430490BEE7039A111D12680391002AC9
:10247C0001DB079204E0524243F0020307920493FB
:10248C0098F800302E2B0ED198F801302A2B38D129
:10249C00039B08F102081A1D1B680392002BB8BF9E
:1024AC004FF0FF330593334D032298F80010284664
:1024BC0000F09AFA40B14023401B03FA00F0049B51
:1024CC0008F101080343049398F8001006222A48E7
:1024DC0008F101078DF8281000F086FA002837D093
:1024EC00264B1BBB039B073323F0070308330393D3
:1024FC00099B4B44099350E705FB023201208846A7
:10250C008AE700230A25194608F10108059340467D
:10251C0010F8012B303A092A03D9002BC3D00591AE
:10252C00C1E705FB012101238046F0E703AB0093D3
:10253C002246134B04A93046AFF30080B0F1FF3FA5
:10254C008146D5D1A3895B063FF57EAF09987DE71F
:10255C0003AB009322460A4B04A9304600F088F8DE
:10256C00ECE700BF982B0008D82B0008B82B00080C
:10257C00782B0008DE2B0008E22B0008000000007E
:10258C003F2300082DE9F04791461F468A680B69E6
:10259C0006469342B8BF1346C9F8003091F8432061
:1025AC000C46DDF8208012B10133C9F800302368E5
:1025BC00990642BFD9F800300233C9F800302568BB
:1025CC0015F0060507D104F1190AE368D9F80020C3
:1025DC009B1AAB4229DC94F843302268003318BFB5
:1025EC00012392062ED404F1430239463046C047EB
:1025FC00013021D02368E56803F00603042B18BFD3
:10260C000025D9F800204FF0000908BFAD1AA368C7
:10261C00226908BF25EAE5759342C4BF9B1AED18E1
:10262C001A344D451AD1002008E001235246394690
:10263C003046C047013003D14FF0FF30BDE8F08782
:10264C000135C2E73020E11881F843005A1C94F898
:10265C0045102244023382F84310C4E7012322467A
:10266C0039463046C0470130E6D009F10109D8E7B8
:10267C002DE9F04301F1430C0C46097E85B06E291F
:10268C001746064698460C9A00F0B38022D8632968
:10269C0036D00AD8002900F0B980582900F0838080
:1026AC0004F1420584F8421032E0642901D0692912
:1026BC00F6D120681368050603F104012AD51B68BE
:1026CC001160002B03DA2D225B4284F843206F4803
:1026DC000A2239E0732900F09D8008D86F2920D098
:1026EC007029DDD1236843F02003236003E07529B2
:1026FC0017D07829D4D17823654884F8453055E033
:10270C00136804F14205191D1B68116084F84230EE
:10271C0001238CE01B6810F0400F116018BF1BB236
:10272C00CFE713682568181D1060280601D51B68B3
:10273C0002E06806FBD51B886F2914BF0A22082209
:10274C005248002184F843106568002DA560C0F242
:10275C009580216821F004012160002B3DD1002DD2
:10276C0040F08E806546082A0BD12368DB0708D51C
:10277C00236962689A42DEBF302305F8013C05F1FB
:10278C00FF35ACEB05032361CDF800803B4603AA73
:10279C0021463046FFF7F6FE01304DD14FF0FF30A9
:1027AC0005B0BDE8F083394884F8451013682168FA
:1027BC001D1D1B6815600A060BD5CA0744BF41F0E6
:1027CC00200121601BB9226822F020022260102215
:1027DC00B7E74D0648BF9BB2EFE76546B3FBF2F196
:1027EC0002FB1133C35C05F8013D0B460029F5D102
:1027FC00B9E713682568181D6169106028061B6805
:10280C0001D5196002E06A06FBD5198000236546E4
:10281C002361B9E71368191D11601D6862680021F6
:10282C00284600F0E1F808B1401B60606368236142
:10283C00002384F84330A7E723692A4639463046FB
:10284C00C0470130AAD023689B0713D4E068039BD0
:10285C009842B8BF1846A3E701234A46394630468A
:10286C00C04701309AD00135E368039A9B1AAB42FA
:10287C00F2DCEBE7002504F11909F5E7002BACD1EC
:10288C00037804F1420584F842306CE7E92B000828
:10289C00FA2B000838B50023054C05460846236082
:1028AC00FFF7CAF8431C02D1236803B12B6038BD73
:1028BC004801002010B50C46B1F90E1000F0A4F838
:1028CC000028ABBF636DA3891B1823F48053ACBFE6
:1028DC006365A38110BD2DE9F0411F468B89054628
:1028EC00DB050C46164605D502230022B1F90E1065
:1028FC0000F068F8A389324623F48053A381B4F91D
:10290C000E103B462846BDE8F04100F017B810B554
:10291C000C46B1F90E1000F055F8431CA38915BFF5
:10292C00606523F4805343F48053A38118BFA381C3
:10293C0010BDB1F90E1000F013B8000038B5054603
:10294C00084611460022054C22601A46FEF742FF4B
:10295C00431C02D1236803B12B6038BD4801002011
:10296C0038B50023054C054608462360FFF782F86E
:10297C00431C02D1236803B12B6038BD48010020F1
:10298C0038B50023064C0546084611462360FFF770
:10299C0074F8431C02D1236803B12B6038BD00BF0F
:1029AC004801002038B50023054C05460846236035
:1029BC00FFF768F8431C02D1236803B12B6038BDC4
:1029CC004801002038B50546084611460022054C42
:1029DC0022601A46FFF758F8431C02D1236803B152
:1029EC002B6038BD4801002010B5C9B2024490429A
:1029FC00034601D1002303E01C7801308C42F6D150
:102A0C00184610BD7047704738B505460846114644
:102A1C000022054C22601A46FFF700F8431C02D135
:102A2C00236803B12B6038BD48010020F8B500BF06
:102A3C00F8BC08BC9E467047F8B500BFF8BC08BC93
:042A4C009E467047EB
:102A500002030405060708090A0B0C0D0E0F1010DF
:102A60000102000000000000000000000102030459
:102A70000607080900000000010203044D50553606
:102A800030353020493243204164647265737320CD
:102A9000697320307825303258283762697420767F
:102AA000616C7565290D0A0057686F20616D2049BA
:102AB000203D203078253032580D0A004D505536D3
:102AC00030353020496E697469616C697A652E2EE3
:102AD0002E2E2E200D0000002D2D2D2D2D2D2D2DD7
:102AE0002D2D2D2D2D2D2D2D2D2D2D2D2D2D2D2D16
:102AF0002D2D2D2D2D2D2D2D2D2D2D2D2D2D2D2D06
:102B00002D2D2D2D2D2D2D2D2D2D2D2D2D2D2D2DF5
:102B10000D000000416363655F58203D2025366449
:102B2000202F20416363655F59203D2025366420B6
:102B30002F20416363655F5A203D20253664200DB8
:102B40000A0000004779726F5F58203D20253664E7
:102B5000202F204779726F5F59203D202536642051
:102B60002F204779726F5F5A203D20253664200D53
:102B70000A0000001000002000000000000000001B
:102B80000000000000000000000000000000000045
:102B90000000000000000000000000000000000035
:102BA0000000000000000000000000000000000025
:102BB0000000000000000000000000000000000015
:102BC0000000000000000000000000000000000005
:102BD0000000000000000000232D302B2000686C56
:102BE0004C00656667454647003031323334353630
:102BF0003738394142434445460030313233343569
:0C2C000036373839616263646566000095
:042C0C00310100088A
:042C10000D010008AA
:102C1400010000001000000000A24A04100000207F
:102C240000000000982B0008B82B0008782B00083F
:102C34000000000000000000000000000000000090
:102C44000000000000000000000000000000000080
:102C54000000000000000000000000000000000070
:102C64000000000000000000000000000000000060
:102C74000000000000000000000000000000000050
:0400000508001AE5F0
:00000001FF
